:0300000002089261
:0C089200787FE4F6D8FD758107020800AD
:0E0866007F647E001208747590BD7F647E0072
:10087400EF1FAA0670011E4A6013E4FCFDC3ED9449
:0D0884007DEC940050EA0DBD00010C80F0E9
:010891002244
:100800007590F8900000E590641F6013E590643ED9
:10081000600DE590647C6007E59025E0048004E5C8
:100820009025E0F590120870A3E582640D45837071
:10083000D5E4F583F58275907E1208667590DB121B
:1008400008707590E71208707590DB120866759055
:100850007E120870A3E5826402458370D97590F812
:06086000120870020803FB
:00000001FF
